{
  "contractName": "ChainlinkWallet",
  "abi": [
    {
      "inputs": [
        {
          "internalType": "address",
          "name": "_tokenAddress",
          "type": "address"
        },
        {
          "internalType": "address",
          "name": "_priceFeedAddress",
          "type": "address"
        }
      ],
      "stateMutability": "nonpayable",
      "type": "constructor"
    },
    {
      "anonymous": false,
      "inputs": [
        {
          "indexed": true,
          "internalType": "address",
          "name": "sender",
          "type": "address"
        },
        {
          "indexed": false,
          "internalType": "uint256",
          "name": "amount",
          "type": "uint256"
        }
      ],
      "name": "Deposit",
      "type": "event"
    },
    {
      "anonymous": false,
      "inputs": [
        {
          "indexed": true,
          "internalType": "address",
          "name": "recipient",
          "type": "address"
        },
        {
          "indexed": false,
          "internalType": "uint256",
          "name": "amount",
          "type": "uint256"
        }
      ],
      "name": "Withdrawal",
      "type": "event"
    },
    {
      "inputs": [
        {
          "internalType": "address",
          "name": "",
          "type": "address"
        }
      ],
      "name": "balances",
      "outputs": [
        {
          "internalType": "uint256",
          "name": "",
          "type": "uint256"
        }
      ],
      "stateMutability": "view",
      "type": "function"
    },
    {
      "inputs": [],
      "name": "priceFeed",
      "outputs": [
        {
          "internalType": "contract AggregatorV3Interface",
          "name": "",
          "type": "address"
        }
      ],
      "stateMutability": "view",
      "type": "function"
    },
    {
      "inputs": [],
      "name": "tokenAddress",
      "outputs": [
        {
          "internalType": "address",
          "name": "",
          "type": "address"
        }
      ],
      "stateMutability": "view",
      "type": "function"
    },
    {
      "inputs": [
        {
          "internalType": "uint256",
          "name": "_amount",
          "type": "uint256"
        }
      ],
      "name": "deposit",
      "outputs": [],
      "stateMutability": "nonpayable",
      "type": "function"
    },
    {
      "inputs": [
        {
          "internalType": "uint256",
          "name": "_amount",
          "type": "uint256"
        }
      ],
      "name": "withdraw",
      "outputs": [],
      "stateMutability": "nonpayable",
      "type": "function"
    },
    {
      "inputs": [
        {
          "internalType": "address",
          "name": "_address",
          "type": "address"
        }
      ],
      "name": "balanceOf",
      "outputs": [
        {
          "internalType": "uint256",
          "name": "",
          "type": "uint256"
        }
      ],
      "stateMutability": "view",
      "type": "function"
    }
  ],
  "bytecode": "0x608060405234801561000f575f80fd5b50604051610c69380380610c6983398181016040528101906100319190610116565b8160015f6101000a81548173ffffffffffffffffffffffffffffffffffffffff021916908373ffffffffffffffffffffffffffffffffffffffff1602179055508060025f6101000a81548173ffffffffffffffffffffffffffffffffffffffff021916908373ffffffffffffffffffffffffffffffffffffffff1602179055505050610154565b5f80fd5b5f73ffffffffffffffffffffffffffffffffffffffff82169050919050565b5f6100e5826100bc565b9050919050565b6100f5816100db565b81146100ff575f80fd5b50565b5f81519050610110816100ec565b92915050565b5f806040838503121561012c5761012b6100b8565b5b5f61013985828601610102565b925050602061014a85828601610102565b9150509250929050565b610b08806101615f395ff3fe608060405234801561000f575f80fd5b5060043610610060575f3560e01c806327e235e3146100645780632e1a7d4d1461009457806370a08231146100b0578063741bef1a146100e05780639d76ea58146100fe578063b6b55f251461011c575b5f80fd5b61007e6004803603810190610079919061063a565b610138565b60405161008b919061067d565b60405180910390f35b6100ae60048036038101906100a991906106c0565b61014c565b005b6100ca60048036038101906100c5919061063a565b61038b565b6040516100d7919061067d565b60405180910390f35b6100e86103d0565b6040516100f59190610746565b60405180910390f35b6101066103f5565b604051610113919061076e565b60405180910390f35b610136600480360381019061013191906106c0565b61041a565b005b5f602052805f5260405f205f915090505481565b5f811161018e576040517f08c379a000000000000000000000000000000000000000000000000000000000815260040161018590610807565b60405180910390fd5b805f803373ffffffffffffffffffffffffffffffffffffffff1673ffffffffffffffffffffffffffffffffffffffff1681526020019081526020015f2054101561020d576040517f08c379a00000000000000000000000000000000000000000000000000000000081526004016102049061086f565b60405180910390fd5b805f803373ffffffffffffffffffffffffffffffffffffffff1673ffffffffffffffffffffffffffffffffffffffff1681526020019081526020015f205f82825461025891906108ba565b9250508190555060015f9054906101000a900473ffffffffffffffffffffffffffffffffffffffff1673ffffffffffffffffffffffffffffffffffffffff1663a9059cbb33836040518363ffffffff1660e01b81526004016102bb9291906108ed565b6020604051808303815f875af11580156102d7573d5f803e3d5ffd5b505050506040513d601f19601f820116820180604052508101906102fb9190610949565b61033a576040517f08c379a0000000000000000000000000000000000000000000000000000000008152600401610331906109be565b60405180910390fd5b3373ffffffffffffffffffffffffffffffffffffffff167f7fcf532c15f0a6db0bd6d0e038bea71d30d808c7d98cb3bf7268a95bf5081b6582604051610380919061067d565b60405180910390a250565b5f805f8373ffffffffffffffffffffffffffffffffffffffff1673ffffffffffffffffffffffffffffffffffffffff1681526020019081526020015f20549050919050565b60025f9054906101000a900473ffffffffffffffffffffffffffffffffffffffff1681565b60015f9054906101000a900473ffffffffffffffffffffffffffffffffffffffff1681565b5f811161045c576040517f08c379a000000000000000000000000000000000000000000000000000000000815260040161045390610a4c565b60405180910390fd5b60015f9054906101000a900473ffffffffffffffffffffffffffffffffffffffff1673ffffffffffffffffffffffffffffffffffffffff166323b872dd3330846040518463ffffffff1660e01b81526004016104ba93929190610a6a565b6020604051808303815f875af11580156104d6573d5f803e3d5ffd5b505050506040513d601f19601f820116820180604052508101906104fa9190610949565b610539576040517f08c379a0000000000000000000000000000000000000000000000000000000008152600401610530906109be565b60405180910390fd5b805f803373ffffffffffffffffffffffffffffffffffffffff1673ffffffffffffffffffffffffffffffffffffffff1681526020019081526020015f205f8282546105849190610a9f565b925050819055503373ffffffffffffffffffffffffffffffffffffffff167fe1fffcc4923d04b559f4d29a8bfc6cda04eb5b0d3c460751c2402c5c5cc9109c826040516105d1919061067d565b60405180910390a250565b5f80fd5b5f73ffffffffffffffffffffffffffffffffffffffff82169050919050565b5f610609826105e0565b9050919050565b610619816105ff565b8114610623575f80fd5b50565b5f8135905061063481610610565b92915050565b5f6020828403121561064f5761064e6105dc565b5b5f61065c84828501610626565b91505092915050565b5f819050919050565b61067781610665565b82525050565b5f6020820190506106905f83018461066e565b92915050565b61069f81610665565b81146106a9575f80fd5b50565b5f813590506106ba81610696565b92915050565b5f602082840312156106d5576106d46105dc565b5b5f6106e2848285016106ac565b91505092915050565b5f819050919050565b5f61070e610709610704846105e0565b6106eb565b6105e0565b9050919050565b5f61071f826106f4565b9050919050565b5f61073082610715565b9050919050565b61074081610726565b82525050565b5f6020820190506107595f830184610737565b92915050565b610768816105ff565b82525050565b5f6020820190506107815f83018461075f565b92915050565b5f82825260208201905092915050565b7f5769746864726177616c20616d6f756e74206d757374206265206772656174655f8201527f72207468616e207a65726f000000000000000000000000000000000000000000602082015250565b5f6107f1602b83610787565b91506107fc82610797565b604082019050919050565b5f6020820190508181035f83015261081e816107e5565b9050919050565b7f496e73756666696369656e742062616c616e63650000000000000000000000005f82015250565b5f610859601483610787565b915061086482610825565b602082019050919050565b5f6020820190508181035f8301526108868161084d565b9050919050565b7f4e487b71000000000000000000000000000000000000000000000000000000005f52601160045260245ffd5b5f6108c482610665565b91506108cf83610665565b92508282039050818111156108e7576108e661088d565b5b92915050565b5f6040820190506109005f83018561075f565b61090d602083018461066e565b9392505050565b5f8115159050919050565b61092881610914565b8114610932575f80fd5b50565b5f815190506109438161091f565b92915050565b5f6020828403121561095e5761095d6105dc565b5b5f61096b84828501610935565b91505092915050565b7f4661696c656420746f207472616e7366657220746f6b656e73000000000000005f82015250565b5f6109a8601983610787565b91506109b382610974565b602082019050919050565b5f6020820190508181035f8301526109d58161099c565b9050919050565b7f4465706f73697420616d6f756e74206d757374206265206772656174657220745f8201527f68616e207a65726f000000000000000000000000000000000000000000000000602082015250565b5f610a36602883610787565b9150610a41826109dc565b604082019050919050565b5f6020820190508181035f830152610a6381610a2a565b9050919050565b5f606082019050610a7d5f83018661075f565b610a8a602083018561075f565b610a97604083018461066e565b949350505050565b5f610aa982610665565b9150610ab483610665565b9250828201905080821115610acc57610acb61088d565b5b9291505056fea264697066735822122079d0aedea9c2f945ed30d785172bd2dc6d2533b0d841977e3b45fed0986c65f664736f6c63430008150033",
  "immutableReferences": {},
  "source": "// SPDX-License-Identifier: MIT\r\npragma solidity ^0.8.19;\r\n\r\nimport \"@chainlink/contracts/src/v0.8/interfaces/AggregatorV3Interface.sol\";\r\nimport \"@openzeppelin/contracts/token/ERC20/IERC20.sol\";\r\n\r\ncontract ChainlinkWallet {\r\n    mapping(address => uint256) public balances;\r\n    address public tokenAddress;\r\n    AggregatorV3Interface public priceFeed;\r\n\r\n    event Deposit(address indexed sender, uint256 amount);\r\n    event Withdrawal(address indexed recipient, uint256 amount);\r\n\r\n    constructor(address _tokenAddress, address _priceFeedAddress) {\r\n        tokenAddress = _tokenAddress;\r\n        priceFeed = AggregatorV3Interface(_priceFeedAddress);\r\n    }\r\n\r\n    function deposit(uint256 _amount) external {\r\n        require(_amount > 0, \"Deposit amount must be greater than zero\");\r\n        require(IERC20(tokenAddress).transferFrom(msg.sender, address(this), _amount), \"Failed to transfer tokens\");\r\n\r\n        balances[msg.sender] += _amount;\r\n        emit Deposit(msg.sender, _amount);\r\n    }\r\n\r\n    function withdraw(uint256 _amount) external {\r\n        require(_amount > 0, \"Withdrawal amount must be greater than zero\");\r\n        require(balances[msg.sender] >= _amount, \"Insufficient balance\");\r\n\r\n        balances[msg.sender] -= _amount;\r\n        require(IERC20(tokenAddress).transfer(msg.sender, _amount), \"Failed to transfer tokens\");\r\n        emit Withdrawal(msg.sender, _amount);\r\n    }\r\n\r\n    function balanceOf(address _address) external view returns (uint256) {\r\n        return balances[_address];\r\n    }\r\n\r\n    \r\n}\r\n",
  "sourcePath": "C:\\Users\\hp\\OneDrive\\Desktop\\Counter\\contracts\\chainlink.sol",
  "compiler": {
    "name": "solc",
    "version": "0.8.21+commit.d9974bed.Emscripten.clang"
  },
  "schemaVersion": "3.4.16",
  "updatedAt": "2024-02-29T14:23:38.630Z",
  "devdoc": {
    "kind": "dev",
    "methods": {},
    "version": 1
  },
  "userdoc": {
    "kind": "user",
    "methods": {},
    "version": 1
  }
}